:1000000000308A0018280000243084008313000880
:10001000031917280630F800F701F70B0D28F80B25
:100020000C287B30F700F70B1328800B0A280800F8
:1000300003081F398300831603170908C039890094
:1000400003131F129F1200300317880083128701C9
:1000500088018901831300308316031386008312FD
:1000600086010130A100A20007184C28A10803193D
:100070004B2806140230A300C830A4000420A30BB0
:100080003C2806150230A300C830A4000420A30BAE
:1000900044288615A1016228A108031D6228F030BA
:1000A000A300FA30A4000420A30B512806108611E7
:1000B0003030A300FA30A4000420A30B5A28061104
:1000C0000130A10007186828871868288614692855
:1000D000861007197228A2080319712806158615BB
:1000E000A2018028A208031D80286030A300FA30F6
:1000F000A4000420A30B7728861106110130A2006A
:04010000342863003C
:04400E00C423FF3F89
:00000001FF
;PIC16F883
;CRC=3196  CREATED="25-oct.-23 12:10"
